:100000000C9461000C9473000C9473000C947300B6
:100010000C9473000C9473000C9473000C94730094
:100020000C9473000C9473000C9473000C94730084
:100030000C9473000C9473000C9473000C94730074
:100040000C9421010C9473000C9473000C947300B5
:100050000C9473000C9473000C9473000C94730054
:100060000C9473000C94730000000000240027001F
:100070002A0000000000250028002B0000000000DE
:1000800023002600290004040404040404040202DA
:100090000202020203030303030301020408102007
:1000A0004080010204081020010204081020000012
:1000B0000008000201000003040700000000000027
:1000C000000011241FBECFEFD8E0DEBFCDBF21E07E
:1000D000A0E0B1E001C01D92AC30B207E1F70E9490
:1000E0006B010C9434020C940000833081F028F4EE
:1000F000813099F08230A9F008958730A9F08830D6
:10010000C9F08430B1F4809180008F7D03C080916C
:1001100080008F7780938000089584B58F7784BDA9
:10012000089584B58F7DFBCF8091B0008F77809349
:10013000B00008958091B0008F7DF9CFCF93DF9309
:10014000EEEAF0E08491EAE9F0E0D491E6E8F0E04C
:10015000C491CC23A1F081110E947500EC2FF0E036
:10016000EE0FFF1FE458FF4FA591B491EC91ED23E2
:1001700081E090E009F480E0DF91CF91089580E084
:1001800090E0FACF1F93CF93DF93282F30E0F9014F
:10019000E255FF4F8491F901E656FF4FD491F901E2
:1001A000EA57FF4FC491CC23A9F0162F81110E946A
:1001B0007500EC2FF0E0EE0FFF1FEE58FF4FA591FA
:1001C000B4918FB7F894EC91111108C0D095DE234B
:1001D000DC938FBFDF91CF911F910895DE2BF8CF75
:1001E000CF93DF9390E0FC01E656FF4F24918A57AE
:1001F0009F4FFC0184918823D1F090E0880F991FD4
:10020000FC01E859FF4FA591B491FC01EE58FF4F56
:10021000C591D491623071F49FB7F8943C91822FCC
:10022000809583238C93E8812E2B28839FBFDF91B9
:10023000CF9108958FB7F894EC912E2B2C938FBF0C
:10024000F6CF1F920F920FB60F9211242F933F9368
:100250008F939F93AF93BF93809108019091090171
:10026000A0910A01B0910B013091070123E0230F07
:100270002D3758F50196A11DB11D209307018093DC
:10028000080190930901A0930A01B0930B0180919A
:10029000030190910401A0910501B091060101961E
:1002A000A11DB11D8093030190930401A09305014A
:1002B000B0930601BF91AF919F918F913F912F9184
:1002C0000F900FBE0F901F90189526E8230F0296EF
:1002D000A11DB11DD2CF789484B5826084BD84B550
:1002E000816084BD85B5826085BD85B5816085BD31
:1002F00080916E00816080936E00109281008091E9
:100300008100826080938100809181008160809370
:100310008100809180008160809380008091B10095
:1003200084608093B1008091B00081608093B000C0
:1003300080917A00846080937A0080917A00826054
:1003400080937A0080917A00816080937A00809116
:100350007A00806880937A001092C10061E084E0A6
:100360000E94F00061E083E00E94F00061E082E022
:100370000E94F00061E081E00E94F00062E080E015
:100380000E94F00034E0E32EF12C00E010E0DD24C8
:10039000D3940E949E00892BC1F5809102018111A6
:1003A00034C0D09202018091000190910101019628
:1003B000B7010E940C02EC019093010180930001AF
:1003C000682F617084E00E94C200BE017595679538
:1003D000617083E00E94C200BE01759567957595B6
:1003E0006795617082E00E94C20023E0D595C795B1
:1003F0002A95E1F76C2F617081E00E94C20001151F
:10040000110539F20E940000C4CF0E949E0001979E
:10041000B1F710920201F3CF97FB072E16F4009468
:1004200007D077FD09D00E94200207FC05D03EF4DA
:10043000909581959F4F0895709561957F4F089590
:10044000AA1BBB1B51E107C0AA1FBB1FA617B707FA
:1004500010F0A61BB70B881F991F5A95A9F7809516
:0C0460009095BC01CD010895F894FFCFE9
:00000001FF
