:020000040000FA
:100000000C9462000C948A000C948A000C948A0070
:100010000C948A000C948A000C948A000C948A0038
:100020000C948A000C948A000C948A000C94250687
:100030000C948A000C948A000C948A000C948A0018
:100040000C94DB050C948A000C948A000C948A00B2
:100050000C948A000C948A000C948A000C948A00F8
:100060000C948A000C948A000000000024002700F1
:100070002A0000000000250028002B0000000000DE
:1000800023002600290004040404040404040202DA
:100090000202020203030303030301020408102007
:1000A0004080010204081020010204081020000012
:1000B0000008000201000003040700000000000027
:1000C00000006B0911241FBECFEFD8E0DEBFCDBF0B
:1000D00011E0A0E0B1E0E4E5FDE102C005900D9281
:1000E000A632B107D9F721E0A6E2B1E001C01D9226
:1000F000A53AB207E1F710E0C2E6D0E004C02197CC
:10010000FE010E94620DC136D107C9F70E94E106C7
:100110000C94A80E0C9400008F929F92AF92BF9205
:10012000CF92DF92EF92FF920F931F93CF93DF93C3
:100130008B01D82FC92F8090790190907A01A090DF
:100140007B01B0907C0175016401F7FAF094F7F837
:10015000F0949B01482F592FC701B6010E94D00C83
:10016000181674F098014D2F5C2FC501B4010E9440
:10017000710B7501640187FD03C06801ED2EFC2E33
:1001800020E030E0A901C701B6010E94710B811186
:100190001DC01092600110926101109262011092D4
:1001A0006301C0927501D0927601E0927701F092DE
:1001B0007801DF91CF911F910F91FF90EF90DF9029
:1001C000CF90BF90AF909F908F900895A701960118
:1001D00060E074E284E799E40E94760B9F770E94C6
:1001E000EF0B6093600170936101809362019093C3
:1001F0006301C1E020E030E0A901C701B6010E941F
:10020000D00C18160CF0C0E0C0935F01CACF833049
:1002100081F028F4813099F08230A9F00895873078
:10022000A9F08830C9F08430B1F4809180008F7DCE
:1002300003C0809180008F7780938000089584B5FB
:100240008F7784BD089584B58F7DFBCF8091B000FA
:100250008F778093B00008958091B0008F7DF9CFA3
:10026000CF93DF93EEEAF0E08491EAE9F0E0D491F5
:10027000E6E8F0E0C491CC23A1F081110E940701CF
:10028000EC2FF0E0EE0FFF1FE458FF4FA591B49163
:10029000EC91ED2381E090E009F480E0DF91CF91D3
:1002A000089580E090E0FACF1F93CF93DF93282F3B
:1002B00030E0F901E255FF4F8491F901E656FF4F16
:1002C000D491F901EA57FF4FC491CC23A9F0162F1E
:1002D00081110E940701EC2FF0E0EE0FFF1FEE5896
:1002E000FF4FA591B4918FB7F894EC91111108C00C
:1002F000D095DE23DC938FBFDF91CF911F910895BE
:10030000DE2BF8CFCF93DF9390E0FC01E656FF4F52
:1003100024918A579F4FFC0184918823C9F090E073
:10032000880F991FFC01E859FF4FA591B491FC017A
:10033000EE58FF4FC591D49161110DC09FB7F8944D
:100340008C91209582238C938881282328839FBFBA
:10035000DF91CF910895623051F49FB7F8943C91AA
:10036000822F809583238C93E8812E2BEFCF8FB73C
:10037000F894EC912E2B2C938FBFEACF3FB7F894D3
:100380008091590190915A01A0915B01B0915C015B
:1003900026B5A89B05C02F3F19F00196A11DB11DE0
:1003A0003FBFBA2FA92F982F8827BC01CD01620F1C
:1003B000711D811D911D42E0660F771F881F991FD7
:1003C0004A95D1F70895CF93DF93FC01278122232B
:1003D00059F1EC0161E080850E94820161E089852C
:1003E0000E9482018F81843011F08830B1F461E085
:1003F0008A850E94820161E08B850E9482018FA51F
:100400008F3F91F061E00E9482016EA581E0682734
:100410008FA5DF91CF910C945401833011F0863079
:1004200071F761E08A85E9CFDF91CF910895CF938D
:10043000DF93FC0127812223A9F0EC010190F081D8
:10044000E02D0284F385E02D60E009958FA58F3FB4
:1004500049F061E00E9482016EA58FA5DF91CF91E6
:100460000C945401DF91CF910895DC01ED91FC9142
:1004700022853385477055276627772741505109D4
:1004800061097109473051056105710560F4FA0190
:10049000E45BFD4F0C94620D560258025A025C0256
:1004A0005E026002620261E0F901099465E0FCCF3E
:1004B00064E0FACF66E0F8CF62E0F6CF6AE0F4CF0E
:1004C00068E0F2CF69E0F0CFCF93DF93EC01CB018E
:1004D000BA0126E030E040E050E00E94A10A62301C
:1004E00071058105910589F16CF46115710581052E
:1004F0009105D1F06130710581059105F9F0DF9129
:10050000CF910895643071058105910561F124F161
:10051000653071058105910591F7E881F9810284C3
:10052000F385E02D66E006C0E881F9810284F38559
:10053000E02D64E0CE01DF91CF910994E881F9814B
:100540000284F385E02D65E0F5CFE881F98102842E
:10055000F385E02D61E0EECFE881F9810284F38537
:10056000E02D63E0E7CFE881F9810284F385E02D97
:1005700062E0E0CFDC01ED91FC910284F385E02D97
:10058000437055276627772742305105610571056D
:1005900071F0433051056105710559F04130510545
:1005A0006105710511F065E0099466E0FDCF6AE030
:1005B000FBCF69E0F9CFCF93DF93EC01CB01BA0118
:1005C00023E030E040E050E00E94A10A6130710574
:1005D0008105910599F06230710581059105A9F0B9
:1005E000672B682B692BC1F4E881F9810284F385BC
:1005F000E02D64E0CE01DF91CF910994E881F9818B
:100600000284F385E02D61E0F5CFE881F981028471
:10061000F385E02D62E0EECFDF91CF910895DC010C
:10062000ED91FC910284F385E02D437055276627F8
:100630007727423051056105710571F0433051054E
:100640006105710559F0413051056105710511F0E1
:1006500062E0099463E0FDCF61E0FBCF60E0F9CF99
:10066000CF93DF93EC01E881F9810284F385E02DDB
:100670008A8160E0811162E0CE010995E881F9810B
:100680000284F385E02D8A8161E0811163E0CE016F
:1006900009958CA59DA58230910538F0880F991F8A
:1006A000880F991F05970197F1F7E881F981028476
:1006B000F385E02D8A8160E0811162E0CE01DF9157
:1006C000CF910994CF93DF93EC0120E030E0A901B2
:1006D000688D798D8A8D9B8D0E94D00C18162CF414
:1006E000E8A9F9A9DF91CF910994EAA9FBA9FACF6A
:1006F000CF92DF92EF92FF920F931F93CF93DF93EE
:10070000DC011796CC91C43039F0C83059F1C330B0
:1007100019F0C63049F1C2E08C01085F1F4FF12C7F
:10072000E12CC62ED12CD1E0F8016481C6010E2C3B
:1007300002C0959587950A94E2F780FD6D270F5FBB
:100740001F4F80810E945401BFEFEB1AFB0AEC1689
:1007500058F3DF91CF911F910F91FF90EF90DF90B1
:10076000CF900895C4E0D8CFC3E0D6CFDC01179670
:10077000EC911797E93008F038C0F0E0EE53FC4FE9
:100780000C94620DCB03D103D703DD03E303F50320
:10079000E903F503EF03ED91FC910684F785E02D65
:1007A0000994ED91FC910088F189E02DF9CFED914C
:1007B000FC910288F389E02DF3CFED91FC91048840
:1007C000F589E02DEDCFED91FC910688F789E02DBC
:1007D000E7CFED91FC91008CF18DE02DE1CFED9113
:1007E000FC91028CF38DE02DDBCF0895CF92DF9248
:1007F000EF92FF920E94BE016B017C018091850106
:1008000090918601A0918701B0918801B701A6015E
:10081000481B590B6A0B7B0B809160019091610121
:10082000A0916201B0916301481759076A077B07DD
:10083000A8F180916D0190916E01A0916F01B0912E
:10084000700120915F01222329F10196A11DB11DA4
:1008500080936D0190936E01A0936F01B09370012E
:1008600040916D0150916E0160916F017091700126
:100870008DE591E00E94B603C0928501D092860179
:10088000E0928701F092880181E0FF90EF90DF9085
:10089000CF9008950197A109B109DACF80E0F5CF93
:1008A0004F925F926F927F928F929F92AF92BF9280
:1008B000CF92DF92EF92FF920F931F93CF93DF932C
:1008C000EC01CC88DD88EE88FF8888899989AA891F
:1008D000BB89C81AD90AEA0AFB0A688D798D8A8D04
:1008E0009B8D9B01AC010E94D50C4B015C0168A162
:1008F00079A18AA19BA19B01AC010E94050B9B01E0
:10090000AC01C501B4010E94760B0E94E80BC11432
:10091000D104E104F10409F0B6C06230710581052B
:1009200091050CF0D0C01B821C821D821E82188E85
:10093000198E1A8E1B8E1CAA1DAA1EAA1FAAC12CB4
:10094000D12C7601C701B601DF91CF911F910F9194
:10095000FF90EF90DF90CF90BF90AF909F908F90DF
:100960007F906F905F904F900895101611061206B9
:100970001306B4F46C157D058E059F051CF42A81C1
:100980002111A1C09B01AC0188279927DC01821BA2
:10099000930BA40BB50B8CAB9DABAEABBFAB93C0B5
:1009A000011511052105310509F48DC06C157D0572
:1009B0008E059F050CF087C08A81882309F483C0C7
:1009C00030952095109501951F4F2F4F3F4F0CAB41
:1009D0001DAB2EAB3FAB77C00115110521053105CD
:1009E00009F471C08824992454018C189D08AE081C
:1009F000BF08681579058A059B050CF064C08A81DB
:100A0000811161C0DDCFCCACDDACEEACFFACA70199
:100A10009601C701B6010E94050B2B013C01C501DF
:100A2000B4010E94200C20E030E040E850E40E9435
:100A3000D50C20E030E040E85FE30E94050B9B010D
:100A4000AC01C301B2010E94760B9B01AC01C7014E
:100A5000B6010E94040B3B016C01FE01E05CFF4FFC
:100A6000E080F180028113819701A8010E94D00CDF
:100A7000181614F473018601C701D8018CAF9DAF1D
:100A8000AEAFBFAF3AC00CA91DA92EA93FA91C1437
:100A90001D041E041F040CF468CF10161106120664
:100AA00013060CF099CF0027112798010C191D0986
:100AB0002E093F0960177107820793070CF062CF78
:100AC0002A8121115FCF8CA89DA8AEA8BFA8811450
:100AD0009104A104B10409F096CF88AD99ADAAADF7
:100AE000BBAD8CAF9DAFAEAFBFAF81E01C141D049A
:100AF0001E041F040CF080E08A833FEF831A930AE0
:100B0000A30AB30A8CAA9DAAAEAABFAA8CAC9DACBC
:100B1000AEACBFACC501B4010E94EF0B6B017C0110
:100B2000CB82DC82ED82FE82A501940160E074E25A
:100B300084E799E40E94760B688F798F8A8F9B8F68
:100B40002A812111FFCE9058688F798F8A8F9B8FD1
:100B5000F9CECF92DF92EF92FF92CF93DF93CDE564
:100B6000D1E0688D798D8A8D9B8D9B01AC010E94AF
:100B7000D50C6B017C0168A179A18AA19BA19B0185
:100B8000AC010E94050B9B01AC01C701B6010E949C
:100B9000760B0E94E80B6CAB7DAB8EAB9FABCE01AE
:100BA000DF91CF91FF90EF90DF90CF900C945004A5
:100BB00008950C941F0E1F920F920FB60F921124DE
:100BC0002F933F938F939F93AF93BF938091550142
:100BD00090915601A0915701B09158013091540164
:100BE00023E0230F2D3758F50196A11DB11D209349
:100BF00054018093550190935601A0935701B093EF
:100C000058018091590190915A01A0915B01B091D6
:100C10005C010196A11DB11D8093590190935A0169
:100C2000A0935B01B0935C01BF91AF919F918F91B5
:100C30003F912F910F900FBE0F901F90189526E8AF
:100C4000230F0296A11DB11DD2CF1F920F920FB696
:100C50000F9211242F933F934F935F936F937F9342
:100C60008F939F93AF93BF93CF93DF93EF93FF93B4
:100C700080912701C0912601D0E087FF24C0109207
:100C8000850010928400809127018F5F8093270157
:100C900080912701082E000C990B8C179D0724F4D6
:100CA000809127018C30C4F180918400909185005F
:100CB000049680349C4908F47AC080918400909115
:100CC0008500049676C080912701082E000C990BB0
:100CD0008C179D07C4F6E09127018E2FEE0F990B1C
:100CE000FC01EE0FFF1FE80FF91FE75DFE4F80814B
:100CF00086FFC9CFE09127018E2FEE0F990BFC01E3
:100D0000EE0FFF1FE80FF91FE75DFE4F808160E0E7
:100D10008F730E945401B7CF2091840030918500D9
:100D2000E09127018E2FEE0F990BFC01EE0FFF1FB4
:100D3000E80FF91FE75DFE4F81819281820F931FBB
:100D40009093890080938800E09127018E2FEE0F09
:100D5000990BFC01EE0FFF1FE80FF91FE75DFE4F37
:100D6000808186FF11C0E09127018E2FEE0F990B35
:100D7000FC01EE0FFF1FE80FF91FE75DFE4F8081BA
:100D800061E08F730E945401FF91EF91DF91CF9149
:100D9000BF91AF919F918F917F916F915F914F9193
:100DA0003F912F910F900FBE0F901F90189580E4E8
:100DB0009CE990938900809388008FEF80932701AE
:100DC000E3CF789484B5826084BD84B5816084BDAE
:100DD00085B5826085BD85B5816085BD80916E00D9
:100DE000816080936E00109281008091810082600A
:100DF0008093810080918100816080938100809147
:100E000080008160809380008091B1008460809335
:100E1000B1008091B00081608093B00080917A0031
:100E2000846080937A0080917A00826080937A0057
:100E300080917A00816080937A0080917A00806846
:100E400080937A001092C10061E084E00E948201E8
:100E500061E083E00E94820161E082E00E94820101
:100E600061E081E00E94820162E080E00E948201F4
:100E700061E085E00E94820161E088E00E948201D9
:100E800061E089E00E94820160E08EE00E948201C0
:100E900061E089E00E94540180914D018C3008F09E
:100EA00051C061E083E10E94820180914D01282FB1
:100EB00030E0F901EE0FFF1FE20FF31FE75DFE4F79
:100EC0009081907C9361908310924E0110924F011B
:100ED0002CE0622F0E94420D829FB001112430E06D
:100EE00020E0AB01420F531FFA01EE0FFF1FE40F8A
:100EF000F51FE75DFE4F908196FD16C02F5F3F4FB7
:100F00002C30310571F781110FC01092800082E002
:100F1000809381001092850010928400B19A809194
:100F20006F00826080936F00E0914D018E2F90E002
:100F3000FC01EE0FFF1FE80FF91FE75DFE4F8081F8
:100F40008064808320E030E04AE754E460917901D6
:100F500070917A0180917B0190917C010E94710BCC
:100F6000882319F180E090E0AAE7B4E48093790146
:100F700090937A01A0937B01B0937C0180939D01B3
:100F800090939E01A0939F01B093A0018091910145
:100F900090919201A0919301B091940118161906B5
:100FA0001A061B0614F40E94A90508E810E098E54B
:100FB000292E92E0392E24EB822E912CA12CB12CDB
:100FC00020E420937C0080917A00806480937A00F2
:100FD00080917A0086FDFCCFA0917800B0917900D5
:100FE00024EB30E00E94680D2FEF33E040E050E04A
:100FF0000E94A10A30935301209352010E94BE0126
:101000002B013C0182E3C82ED12CE12CF12C0E9453
:10101000BE016419750986099709683E7340810508
:101020009105A8F331E0C31AD108E108F10888EE70
:10103000480E83E0581E611C711CC114D104E104E8
:10104000F10429F70E943001892B09F095C08091A5
:101050002801811191C0809150019091510131E09E
:1010600030932801019664E070E00E944E0D909349
:10107000510180935001C0915001D0915101C13074
:10108000D10509F087C080915201909153018B35B1
:1010900091050CF479C061E085E00E94540160E0A4
:1010A00088E00E9454018091500190915101039772
:1010B000C1F5C0915201D091530128EE33E0DE0119
:1010C0000E94680DA50194010E94A10A6901B9015D
:1010D000330F880B990B0E94200C2B013C012091AF
:1010E00075013091760140917701509178010E940D
:1010F000710B882321F0C301B2010E948C00CB3513
:10110000D1050CF4CAC08091600190916101A09159
:101110006201B0916301892B8A2B8B2B11F00E9405
:10112000F603C0915001D09151016C2F617084E0A1
:101130000E945401BE0175956795617083E00E941D
:101140005401BE017595679575956795617082E04C
:101150000E94540123E0D595C7952A95E1F76C2F9D
:10116000617081E00E94540180E090E0892B09F4D5
:1011700027CF0E94000024CF0E943001019709F080
:101180007ACF1092280177CF60E085E00E94540169
:1011900061E086CF60E085E00E94540160E088E075
:1011A0000E945401229709F07ECF809152019091C4
:1011B0005301A4EBB0E0A81BB90BA03282E0B80742
:1011C000B4F580914E016801C81AD10887FDD39407
:1011D000CC0CDD1CCC0CDD1C0D2C000CEE08FF082B
:1011E00080914F019101281B310987FD3395220F12
:1011F000331F220F331F032E000C440B550B2C19E9
:101200003D094E095F09A53BB10514F0A4EBB0E020
:10121000B7FF02C0B0E0A0E00E94CB0AA501940194
:101220000E94A10AC20ED31EE41EF51ED6014091F3
:101230004D014C3008F037CF80914E019801281BAA
:10124000310987FD3395C901880F991F880F991FB0
:10125000A817B90784F080914F019101281B31092B
:1012600087FD3395C901880F991F880F991FA8170B
:10127000B9070CF4CD010297880F991F6FB7F89446
:1012800050E09A01220F331F240F351FF901E75D4B
:10129000FE4F928381836FBF06CF662777276C1935
:1012A0007D09072E000C880B990B0E94200C6B0106
:1012B0007C01209175013091760140917701509128
:1012C00078010E94710B882309F41DCFC701B60174
:1012D0000E948C0018CF8F929F92AF92BF92CF92B4
:1012E000DF92EF92FF928AE091E090935E0180930B
:1012F0005D0184E08093640110926D0110926E0193
:1013000010926F011092700110927101109272018F
:10131000109273011092740110927501109276016F
:1013200010927701109278011092790110927A014F
:1013300010927B0110927C0110927D0110927E012F
:1013400010927F0110928001C12CD12C30E8E32E45
:101350003FE3F32EC0928101D0928201E09283019B
:10136000F09284011092600110926101109262016A
:101370001092630181E090E090938A01809389014B
:101380008FEF80938C01109285011092860110924C
:101390008701109288018DE0809365018BE0809336
:1013A00066018CE0809367018AE080936801109267
:1013B0008B01109291011092920110929301109260
:1013C000940110929501109296011092970110923B
:1013D00098011092990110929A0110929B0110921B
:1013E0009C01C0929D01D0929E01E0929F01F092DB
:1013F000A00110925F011092690110926A0110928F
:101400006B0110926C018DE591E00E94E3018090E8
:101410007D0190907E01A0907F01B0908001A70196
:101420009601C501B4010E94710B882381F160917E
:1014300091017091920180919301909194010E9489
:10144000200CA50194010E94D50C0E94E80B60932A
:10145000910170939201809393019093940186E897
:1014600096E6A9E6B9E48093950190939601A0933E
:101470009701B0939801C0927D01D0927E01E092D5
:101480007F01F09280018DE591E00E94500420E000
:1014900030E040E85FE36091790170917A018091DA
:1014A0007B0190917C010E94710B882339F180E0CF
:1014B00090E0A0E8BFE38093790190937A01A09334
:1014C0007B01B0937C0180E094E2A4E7B9E48093CF
:1014D0009D0190939E01A0939F01B093A0018091E4
:1014E000910190919201A0919301B09194011816ED
:1014F00019061A061B0614F40E94A90580912601FC
:101500008C30D8F491E0980F9093260180934D0190
:1015100090E0FC01EE0FFF1FE80FF91FE75DFE4FA3
:1015200088EB9BE092838183FF90EF90DF90CF90D8
:10153000BF90AF909F908F9008958FEF80934D0153
:10154000F3CF052E97FB1EF400940E94B80A57FDB6
:1015500007D00E94D30A07FC03D04EF40C94B80ABB
:1015600050954095309521953F4F4F4F5F4F0895CF
:1015700090958095709561957F4F8F4F9F4F0895FF
:101580000E94F50AA59F900DB49F900DA49F800D19
:10159000911D11240895B7FF0C94C00A0E94C00A3F
:1015A000821B930B0895A1E21A2EAA1BBB1BFD01FF
:1015B0000DC0AA1FBB1FEE1FFF1FA217B307E40732
:1015C000F50720F0A21BB30BE40BF50B661F771F8A
:1015D000881F991F1A9469F760957095809590956A
:1015E0009B01AC01BD01CF010895A29FB001B39F43
:1015F000C001A39F700D811D1124911DB29F700D1C
:10160000811D1124911D08955058BB27AA270E94BF
:101610001C0B0C94960C0E94880C38F00E948F0CC6
:1016200020F039F49F3F19F426F40C94850C0EF445
:10163000E095E7FB0C947F0CE92F0E94A70C58F370
:10164000BA17620773078407950720F079F4A6F5A7
:101650000C94C90C0EF4E0950B2EBA2FA02D0B01A3
:10166000B90190010C01CA01A0011124FF27591BE7
:1016700099F0593F50F4503E68F11A16F040A22FED
:10168000232F342F4427585FF3CF4695379527955E
:10169000A795F0405395C9F77EF41F16BA0B620B5D
:1016A000730B840BBAF09150A1F0FF0FBB1F661FA4
:1016B000771F881FC2F70EC0BA0F621F731F841FE7
:1016C00048F4879577956795B795F7959E3F08F00D
:1016D000B0CF9395880F08F09927EE0F97958795CF
:1016E00008950E945B0C08F481E008950E948A0B23
:1016F0000C94960C0E948F0C58F00E94880C40F0BD
:1017000029F45F3F29F00C947F0C51110C94CA0C02
:101710000C94850C0E94A70C68F39923B1F3552310
:1017200091F3951B550BBB27AA27621773078407F4
:1017300038F09F5F5F4F220F331F441FAA1FA9F38A
:1017400035D00E2E3AF0E0E832D091505040E69578
:10175000001CCAF72BD0FE2F29D0660F771F881FD9
:10176000BB1F261737074807AB07B0E809F0BB0BCC
:10177000802DBF01FF2793585F4F3AF09E3F5105E0
:1017800078F00C947F0C0C94CA0C5F3FE4F3983E05
:10179000D4F3869577956795B795F7959F5FC9F7C9
:1017A000880F911D9695879597F90895E1E0660F4A
:1017B000771F881FBB1F621773078407BA0720F0C3
:1017C000621B730B840BBA0BEE1F88F7E09508952C
:1017D0000E94EF0B6894B1110C94CA0C08950E94FA
:1017E000AF0C88F09F5798F0B92F9927B751B0F0F8
:1017F000E1F0660F771F881F991F1AF0BA95C9F795
:1018000014C0B13091F00E94C90CB1E008950C945D
:10181000C90C672F782F8827B85F39F0B93FCCF310
:10182000869577956795B395D9F73EF49095809511
:10183000709561957F4F8F4F9F4F0895E89409C031
:1018400097FB3EF490958095709561957F4F8F4FF3
:101850009F4F9923A9F0F92F96E9BB279395F69509
:10186000879577956795B795F111F8CFFAF4BB0F87
:1018700011F460FF1BC06F5F7F4F8F4F9F4F16C0EB
:10188000882311F096E911C0772321F09EE8872F75
:10189000762F05C0662371F096E8862F70E060E031
:1018A0002AF09A95660F771F881FDAF7880F9695AA
:1018B000879597F90895990F0008550FAA0BE0E84E
:1018C000FEEF16161706E807F907C0F01216130602
:1018D000E407F50798F0621B730B840B950B39F442
:1018E0000A2661F0232B242B252B21F408950A26A8
:1018F00009F4A140A6958FEF811D811D089597F9E8
:101900009F6780E870E060E008959FEF80EC0895A5
:1019100000240A94161617061806090608950024CE
:101920000A9412161306140605060895092E039448
:10193000000C11F4882352F0BB0F40F4BF2B11F4BC
:1019400060FF04C06F5F7F4F8F4F9F4F089557FD1B
:101950009058440F551F59F05F3F71F04795880F1D
:1019600097FB991F61F09F3F79F0879508951216B4
:1019700013061406551FF2CF4695F1DF08C0161660
:1019800017061806991FF1CF869571056105089411
:101990000895E894BB2766277727CB0197F9089528
:1019A0000E945B0C08F48FEF08950E94E80C0C94E1
:1019B000960C0E94880C38F00E948F0C20F0952322
:1019C00011F00C947F0C0C94850C11240C94CA0C0F
:1019D0000E94A70C70F3959FC1F3950F50E0551F1F
:1019E000629FF001729FBB27F00DB11D639FAA2774
:1019F000F00DB11DAA1F649F6627B00DA11D661FC3
:101A0000829F2227B00DA11D621F739FB00DA11DE3
:101A1000621F839FA00D611D221F749F3327A00D9D
:101A2000611D231F849F600D211D822F762F6A2F39
:101A300011249F5750409AF0F1F088234AF0EE0F9E
:101A4000FF1FBB1F661F771F881F91505040A9F7CB
:101A50009E3F510580F00C947F0C0C94CA0C5F3FA4
:101A6000E4F3983ED4F3869577956795B795F79507
:101A7000E7959F5FC1F7FE2B880F911D969587957F
:101A800097F90895991B79E004C0991F961708F0FB
:101A9000961B881F7A95C9F78095089597FB072EA6
:101AA00016F4009407D077FD09D00E946F0D07FC53
:101AB00005D03EF4909581959F4F0895709561955E
:101AC0007F4F0895EE0FFF1F0590F491E02D0994CC
:101AD0000E94F50AB7FF0895821B930B0895AA1B75
:101AE000BB1B51E107C0AA1FBB1FA617B70710F009
:101AF000A61BB70B881F991F5A95A9F7809590953B
:101B0000BC01CD0108950F931F93CF93DF938230D3
:101B1000910510F482E090E0E091A301F091A4011E
:101B200030E020E0B0E0A0E0309799F421153105D5
:101B300009F44AC0281B390B24303105D8F58A81B5
:101B40009B816115710589F1FB0193838283FE01FD
:101B500011C0408151810281138148175907E0F07B
:101B60004817590799F4109761F012960C93129741
:101B700013961C933296CF01DF91CF911F910F9155
:101B800008950093A3011093A401F4CF211531050A
:101B900051F04217530738F0A901DB019A01BD014A
:101BA000DF01F801C1CFEF01F9CF9093A401809339
:101BB000A301CDCFFE01E20FF31F81939193225039
:101BC000310939832883D7CF2091A1013091A20117
:101BD000232B41F420910201309103013093A201A3
:101BE0002093A101209100013091010121153105BF
:101BF00041F42DB73EB74091040150910501241BDB
:101C0000350BE091A101F091A201E217F307A0F4D6
:101C10002E1B3F0B2817390778F0AC014E5F5F4F42
:101C20002417350748F04E0F5F1F5093A2014093D1
:101C3000A101819391939FCFF0E0E0E09CCFCF93FF
:101C4000DF930097E9F0FC01329713821282A09192
:101C5000A301B091A401ED0130E020E01097A1F4C0
:101C600020813181820F931F2091A1013091A20127
:101C70002817390709F061C0F093A201E093A10190
:101C8000DF91CF910895EA01CE17DF07E8F54A8189
:101C90005B819E0141155105B1F7E901FB83EA83A0
:101CA00049915991C40FD51FEC17FD0761F480814C
:101CB00091810296840F951FE9019983888382811F
:101CC00093819B838A83F0E0E0E012968D919C9152
:101CD00013970097B9F52D913C911197CD0102967C
:101CE000820F931F2091A1013091A201281739077B
:101CF00039F6309751F51092A4011092A301B093D8
:101D0000A201A093A101BCCFD383C28340815181A2
:101D1000840F951FC817D90761F44E5F5F4F888104
:101D20009981480F591F518340838A819B819383F6
:101D300082832115310509F0B0CFF093A401E0931F
:101D4000A3019ECFFD01DC01C0CF13821282D7CF49
:101D5000F894FFCF0000A5018000000000001702EA
:101D6000E301D805D90550047803B60362033003B4
:0A1D70000F03DB02BA026402350221
:107E0000112484B714BE81FFF0D085E080938100F7
:107E100082E08093C00088E18093C10086E0809377
:107E2000C20080E18093C4008EE0C9D0259A86E02C
:107E300020E33CEF91E0309385002093840096BBD3
:107E4000B09BFECF1D9AA8958150A9F7CC24DD24C4
:107E500088248394B5E0AB2EA1E19A2EF3E0BF2EE7
:107E6000A2D0813461F49FD0082FAFD0023811F036
:107E7000013811F484E001C083E08DD089C08234E0
:107E800011F484E103C0853419F485E0A6D080C0E4
:107E9000853579F488D0E82EFF2485D0082F10E0AE
:107EA000102F00270E291F29000F111F8ED06801E7
:107EB0006FC0863521F484E090D080E0DECF843638
:107EC00009F040C070D06FD0082F6DD080E0C81688
:107ED00080E7D80618F4F601B7BEE895C0E0D1E017
:107EE00062D089930C17E1F7F0E0CF16F0E7DF06D8
:107EF00018F0F601B7BEE89568D007B600FCFDCFD4
:107F0000A601A0E0B1E02C9130E011968C91119780
:107F100090E0982F8827822B932B1296FA010C0160
:107F200087BEE89511244E5F5F4FF1E0A038BF0790
:107F300051F7F601A7BEE89507B600FCFDCF97BE46
:107F4000E89526C08437B1F42ED02DD0F82E2BD052
:107F50003CD0F601EF2C8F010F5F1F4F84911BD097
:107F6000EA94F801C1F70894C11CD11CFA94CF0C13
:107F7000D11C0EC0853739F428D08EE10CD085E9AC
:107F80000AD08FE07ACF813511F488E018D01DD067
:107F900080E101D065CF982F8091C00085FFFCCF94
:107FA0009093C60008958091C00087FFFCCF809118
:107FB000C00084FD01C0A8958091C6000895E0E648
:107FC000F0E098E1908380830895EDDF803219F02E
:107FD00088E0F5DFFFCF84E1DECF1F93182FE3DFCA
:107FE0001150E9F7F2DF1F91089580E0E8DFEE27F6
:047FF000FF270994CA
:027FFE00040479
:00000001FF
