:100000000C9461000C947E000C947E000C947E0095
:100010000C947E000C947E000C947E000C947E0068
:100020000C947E000C947E000C947E000C947E0058
:100030000C947E000C947E000C947E000C947E0048
:100040000C945C010C947E000C947E000C947E0059
:100050000C947E000C947E000C947E000C947E0028
:100060000C947E000C947E00000000002400270009
:100070002A0000000000250028002B0000000000DE
:1000800023002600290004040404040404040202DA
:100090000202020203030303030301020408102007
:1000A0004080010204081020010204081020000012
:1000B0000008000201000003040700000000000027
:1000C000000011241FBECFEFD8E0DEBFCDBF11E08E
:1000D000A0E0B1E0E4E8F6E002C005900D92A030A7
:1000E000B107D9F721E0A0E0B1E001C01D92AE3028
:1000F000B207E1F70E94A6010C9440030C940000A3
:10010000833081F028F4813099F08230A9F008958D
:100110008730A9F08830C9F08430B1F48091800034
:100120008F7D03C0809180008F7780938000089539
:1001300084B58F7784BD089584B58F7DFBCF809182
:10014000B0008F778093B00008958091B0008F7DCC
:10015000F9CFCF93DF93EEEAF0E08491EAE9F0E0A3
:10016000D491E6E8F0E0C491CC23A1F081110E9483
:100170008000EC2FF0E0EE0FFF1FE458FF4FA59139
:10018000B491EC91ED2381E090E009F480E0DF91FF
:10019000CF91089580E090E0FACF1F93CF93DF9343
:1001A000282F30E0F901E255FF4F8491F901E6561E
:1001B000FF4FD491F901EA57FF4FC491CC23A9F026
:1001C000162F81110E948000EC2FF0E0EE0FFF1F30
:1001D000EE58FF4FA591B4918FB7F894EC9111119F
:1001E00008C0D095DE23DC938FBFDF91CF911F91A4
:1001F0000895DE2BF8CFCF93DF9390E0FC01E65615
:10020000FF4F24918A579F4FFC0184918823C9F0A6
:1002100090E0880F991FFC01E859FF4FA591B49118
:10022000FC01EE58FF4FC591D49161110DC09FB7ED
:10023000F8948C91209582238C938881282328839D
:100240009FBFDF91CF910895623051F49FB7F8942A
:100250003C91822F809583238C93E8812E2BEFCFC6
:100260008FB7F894EC912E2B2C938FBFEACF3FB72A
:10027000F89480910A0190910B01A0910C01B0912A
:100280000D0126B5A89B05C02F3F19F00196A11DB1
:10029000B11D3FBFBA2FA92F982F8827BC01CD01D0
:1002A000620F711D811D911D42E0660F771F881F2F
:1002B000991F4A95D1F708951F920F920FB60F928A
:1002C00011242F933F938F939F93AF93BF9380916C
:1002D000060190910701A0910801B09109013091A8
:1002E000050123E0230F2D3758F50196A11DB11DFF
:1002F000209305018093060190930701A0930801C4
:10030000B093090180910A0190910B01A0910C0119
:10031000B0910D010196A11DB11D80930A0190932A
:100320000B01A0930C01B0930D01BF91AF919F9170
:100330008F913F912F910F900FBE0F901F901895A6
:1003400026E8230F0296A11DB11DD2CF789484B563
:10035000826084BD84B5816084BD85B5826085BDC1
:1003600085B5816085BD80916E00816080936E004F
:100370001092810080918100826080938100809141
:1003800081008160809381008091800081608093F2
:1003900080008091B10084608093B1008091B000B2
:1003A00081608093B00080917A00846080937A00AD
:1003B00080917A00826080937A0080917A008160D7
:1003C00080937A0080917A00806880937A001092FE
:1003D000C10061E084E00E94FB0061E083E00E94D4
:1003E000FB0061E082E00E94FB0061E081E00E948E
:1003F000FB0062E080E00E94FB0061E085E00E947B
:10040000FB0061E088E00E94FB0061E089E00E945F
:10041000FB0060E08EE00E94FB0061E089E00E944A
:10042000CD0040E4242E44244A9453E0552E612C00
:10043000712CC4E0D0E000E010E03324339420922B
:100440007C0080917A00806480937A0080917A00A9
:1004500086FDFCCFA0917800B091790024EB30E0CC
:100460000E942503A30192010E94C102309304015E
:10047000209303010E9437016B017C0132E3832E3C
:10048000912CA12CB12C0E9437016C197D098E0989
:100490009F09683E734081059105A8F321E0821A07
:1004A0009108A108B10888EEC80E83E0D81EE11CAF
:1004B000F11C81149104A104B10429F70E94A90040
:1004C000892B09F050C08091000181114CC08091AE
:1004D000010190910201309200010196BE010E943B
:1004E00011039093020180930101E0900101F090CB
:1004F000020181E0E816F104F1F580910301909189
:10050000040161E08B359105BCF560E085E00E9457
:10051000CD0061E088E00E94CD006E2D617084E026
:100520000E94CD00B70175956795617083E00E94C8
:10053000CD00B7017595679575956795617082E0F7
:100540000E94CD00B70123E0759567952A95E1F7E4
:10055000617081E00E94CD000115110509F46FCF93
:100560000E9400006CCF0E94A900019709F0BDCF46
:1005700010920001BACF60E085E00E94CD0060E0FB
:10058000C9CF052E97FB1EF400940E94D80257FD98
:1005900007D00E94E00207FC03D04EF40C94D8026E
:1005A00050954095309521953F4F4F4F5F4F08959F
:1005B00090958095709561957F4F8F4F9F4F0895CF
:1005C000A1E21A2EAA1BBB1BFD010DC0AA1FBB1F57
:1005D000EE1FFF1FA217B307E407F50720F0A21BC9
:1005E000B30BE40BF50B661F771F881F991F1A9436
:1005F00069F760957095809590959B01AC01BD0160
:10060000CF010895A29FB001B39FC001A39F700DB9
:10061000811D1124911DB29F700D811D1124911D0A
:10062000089597FB072E16F4009407D077FD09D0A4
:100630000E942C0307FC05D03EF4909581959F4FB6
:100640000895709561957F4F08950E940203B7FF4A
:100650000895821B930B0895AA1BBB1B51E107C091
:10066000AA1FBB1FA617B70710F0A61BB70B881F42
:10067000991F5A95A9F780959095BC01CD010895D1
:04068000F894FFCF1C
:00000001FF
