:100000000C9462000C948A000C948A000C948A0070
:100010000C948A000C948A000C948A000C948A0038
:100020000C948A000C948A000C948A000C948A0028
:100030000C948A000C948A000C948A000C948A0018
:100040000C94C3020C948A000C9433030C940D039B
:100050000C948A000C948A000C948A000C948A00F8
:100060000C948A000C948A000000000024002700F1
:100070002A0000000000250028002B0000000000DE
:1000800023002600290004040404040404040202DA
:100090000202020203030303030301020408102007
:1000A0004080010204081020010204081020000012
:1000B0000008000201000003040700000000000027
:1000C0000000BD0411241FBECFEFD8E0DEBFCDBFBE
:1000D00011E0A0E0B1E0E8E7FAE002C005900D927F
:1000E000A631B107D9F721E0A6E1B1E001C01D9228
:1000F000AF3BB207E1F710E0C2E6D0E004C02197C1
:10010000FE010E943405C136D107C9F70E9465037C
:100110000C943A050C940000833081F028F481306F
:1001200099F08230A9F008958730A9F08830C9F09D
:100130008430B1F4809180008F7D03C08091800075
:100140008F7780938000089584B58F7784BD08955C
:1001500084B58F7DFBCF8091B0008F778093B00006
:1001600008958091B0008F7DF9CFCF93DF93EEEAB1
:10017000F0E08491EAE9F0E0D491E6E8F0E0C4919F
:10018000CC23A1F081110E948C00EC2FF0E0EE0F47
:10019000FF1FE458FF4FA591B491EC91ED2381E04E
:1001A00090E009F480E0DF91CF91089580E090E045
:1001B000FACF1F93CF93DF93282F30E0F901E25558
:1001C000FF4F8491F901E656FF4FD491F901EA57A8
:1001D000FF4FC491CC23A9F0162F81110E948C00EF
:1001E000EC2FF0E0EE0FFF1FEE58FF4FA591B491FA
:1001F0008FB7F894EC91111108C0D095DE23DC93F1
:100200008FBFDF91CF911F910895DE2BF8CFCF9351
:10021000DF9390E0FC01E656FF4F24918A579F4FF1
:10022000FC0184918823C9F090E0880F991FFC019C
:10023000E859FF4FA591B491FC01EE58FF4FC591CD
:10024000D49161110DC09FB7F8948C9120958223B1
:100250008C938881282328839FBFDF91CF910895B5
:10026000623051F49FB7F8943C91822F809583239C
:100270008C93E8812E2BEFCF8FB7F894EC912E2B37
:100280002C938FBFEACF3FB7F89480911E019091D5
:100290001F01A0912001B091210126B5A89B05C0A6
:1002A0002F3F19F00196A11DB11D3FBFBA2FA92FF5
:1002B000982F8827BC01CD01620F711D811D911DF2
:1002C00042E0660F771F881F991F4A95D1F708955E
:1002D000AF92BF92CF92DF92EF92FF920F931F9354
:1002E000CF93DF936C017B018B01040F151FEB0192
:1002F0005E01AE18BF08C017D10759F06991D60149
:10030000ED91FC910190F081E02DC6010995892BBA
:1003100079F7C501DF91CF911F910F91FF90EF9079
:10032000DF90CF90BF90AF900895FC01538D448D26
:10033000252F30E0842F90E0821B930B541710F090
:10034000CF96089501970895FC01918D828D98179D
:1003500061F0A28DAE0FBF2FB11D5D968C91928D75
:100360009F5F9F73928F90E008958FEF9FEF0895A6
:10037000FC01918D828D981731F0828DE80FF11D6F
:10038000858D90E008958FEF9FEF0895FC01918D8A
:10039000228D892F90E0805C9F4F821B91098F7383
:1003A0009927089582E291E00E94C60121E0892BFD
:1003B00009F420E0822F089580E090E0892B29F055
:1003C0000E94D20181110C9400000895FC01A48DBB
:1003D000A80FB92FB11DA35ABF4F2C91848D90E067
:1003E00001968F739927848FA689B7892C93A0894A
:1003F000B1898C91837080648C93938D848D9813D4
:1004000006C00288F389E02D80818F7D8083089566
:10041000EF92FF920F931F93CF93DF93EC0181E054
:10042000888F9B8D8C8D98131AC0E889F9898081FB
:1004300085FF15C09FB7F894EE89FF896083E8892E
:10044000F98980818370806480839FBF81E090E020
:10045000DF91CF911F910F91FF90EF900895F62EAD
:100460000B8D10E00F5F1F4F0F731127E02E8C8D47
:100470008E110CC00FB607FCFACFE889F98980818C
:1004800085FFF5CFCE010E94E601F1CFEB8DEC0F99
:10049000FD2FF11DE35AFF4FF0829FB7F8940B8FA9
:1004A000EA89FB8980818062CFCFCF93DF93EC0113
:1004B000888D8823B9F0AA89BB89E889F9898C914C
:1004C00085FD03C0808186FD0DC00FB607FCF7CF08
:1004D0008C9185FFF2CF808185FFEDCFCE010E9408
:1004E000E601E9CFDF91CF9108958F929F92AF926D
:1004F000BF920F931F93CF93DF93CDB7DEB7A19732
:100500000FB6F894DEBF0FBECDBF19A2423008F47B
:100510004AE08E010F5D1F4F842E912CB12CA12C2F
:10052000A50194010E94FE04E62FB901CA01EA3038
:1005300044F5E05DD801EE938D01232B242B252B70
:1005400079F790E080E0109769F0FD0101900020BC
:10055000E9F73197AF014A1B5B0BBD0182E291E0E5
:100560000E946801A1960FB6F894DEBF0FBECDBF02
:10057000DF91CF911F910F91BF90AF909F908F907F
:100580000895E95CD7CF1F920F920FB60F921124F6
:100590002F933F938F939F93AF93BF9380911A01B3
:1005A00090911B01A0911C01B0911D013091190186
:1005B00023E0230F2D3758F50196A11DB11D20937F
:1005C000190180931A0190931B01A0931C01B09311
:1005D0001D0180911E0190911F01A0912001B091F9
:1005E00021010196A11DB11D80931E0190931F0151
:1005F000A0932001B0932101BF91AF919F918F9162
:100600003F912F910F900FBE0F901F90189526E8E5
:10061000230F0296A11DB11DD2CF1F920F920FB6CC
:100620000F9211242F933F934F935F936F937F9378
:100630008F939F93AF93BF93EF93FF9382E291E0E9
:100640000E94E601FF91EF91BF91AF919F918F9131
:100650007F916F915F914F913F912F910F900FBEBE
:100660000F901F9018951F920F920FB60F921124A2
:100670002F938F939F93EF93FF93E0913201F0912B
:1006800033018081E0913801F091390182FD1BC076
:10069000908180913B018F5F8F7320913C01821785
:1006A00041F0E0913B01F0E0EE5DFE4F958F8093CD
:1006B0003B01FF91EF919F918F912F910F900FBE72
:1006C0000F901F9018958081F4CF789484B5826044
:1006D00084BD84B5816084BD85B5826085BD85B5E6
:1006E000816085BD80916E00816080936E00109264
:1006F00081008091810082608093810080918100DF
:10070000816080938100809180008160809380006F
:100710008091B10084608093B1008091B0008160CD
:100720008093B00080917A00846080937A008091F9
:100730007A00826080937A0080917A008160809351
:100740007A0080917A00806880937A001092C100CC
:1007500061E084E00E94070161E083E00E940701FC
:1007600061E082E00E94070161E081E00E940701F0
:1007700062E080E00E94070161E085E00E940701DD
:1007800061E088E00E94070161E089E00E940701C2
:1007900060E08EE00E94070161E089E00E94D900DC
:1007A000E0913201F091330182E08083E0912E01EB
:1007B000F0912F011082E0913001F09131018FEC26
:1007C000808310923A01E0913601F091370186E082
:1007D0008083E0913401F0913501808180618083D4
:1007E000E0913401F0913501808188608083E0914F
:1007F0003401F0913501808180688083E09134017B
:10080000F091350180818F7D808340E4D42E54E0C7
:10081000E52EF12C00E010E0D0927C0080917A006F
:10082000806480937A0080917A0086FDFCCFC0912D
:100830007800D09179004E010D2E000CAA08BB085B
:100840004AE0C501B401B7FE0DC06DE282E291E05D
:100850000E94080266277727CB01681979098A095F
:100860009B094AE00E94750242E050E062E171E0BB
:1008700082E291E00E9468010E9443012B013C0149
:1008800032E3832E912CA12CB12C0E9443016419D8
:10089000750986099709683E734081059105A8F39B
:1008A00021E0821A9108A108B10888EE480E83E081
:1008B000581E611C711C81149104A104B10429F714
:1008C000C935D2400CF44CC060E085E00E94D900EC
:1008D00061E088E00E94D9000E94B500892B09F0F0
:1008E00045C080911801811141C081E080931801B9
:1008F00080911601909117010196B7010E94EA04B8
:10090000EC019093170180931601682F617084E0C9
:100910000E94D900BE0175956795617083E00E94C1
:10092000D900BE017595679575956795617082E0F0
:100930000E94D90023E0D595C7952A95E1F76C2F41
:10094000617081E00E94D9000115110509F464CF9E
:100950000E94D201882309F45FCF0E9400005CCF7F
:1009600061E085E00E94D90060E0B3CF0E94B5004D
:10097000019751F710921801E7CFE2E2F1E01382FC
:10098000128288EE93E0A0E0B0E084839583A68392
:10099000B78384E091E09183808385EC90E0958734
:1009A000848784EC90E09787868780EC90E0918B39
:1009B000808B81EC90E0938B828B82EC90E0958B26
:1009C000848B86EC90E0978B868B118E128E138E23
:1009D000148E089597FB072E16F4009407D077FD28
:1009E00009D00E94200507FC05D03EF49095819522
:1009F0009F4F0895709561957F4F0895A1E21A2E3B
:100A0000AA1BBB1BFD010DC0AA1FBB1FEE1FFF1FB2
:100A1000A217B307E407F50720F0A21BB30BE40B02
:100A2000F50B661F771F881F991F1A9469F7609549
:100A30007095809590959B01AC01BD01CF01089503
:100A4000AA1BBB1B51E107C0AA1FBB1FA617B707F4
:100A500010F0A61BB70B881F991F5A95A9F7809510
:100A60009095BC01CD010895EE0FFF1F0590F49104
:080A7000E02D0994F894FFCF7A
:100A7800000000000802680195015502C601A401A2
:060A8800B8010D0A000098
:00000001FF
