:020000040000FA
:100000000C9462000C948A000C948A000C948A0070
:100010000C948A000C948A000C948A000C948A0038
:100020000C948A000C948A000C948A000C94C202EE
:100030000C948A000C948A000C948A000C948A0018
:100040000C9478020C948A000C948A000C948A0018
:100050000C948A000C948A000C948A000C948A00F8
:100060000C948A000C948A000000000024002700F1
:100070002A0000000000250028002B0000000000DE
:1000800023002600290004040404040404040202DA
:100090000202020203030303030301020408102007
:1000A0004080010204081020010204081020000012
:1000B0000008000201000003040700000000000027
:1000C0000000370611241FBECFEFD8E0DEBFCDBF42
:1000D00011E0A0E0B1E0E6E8FEE002C005900D927C
:1000E000A030B107D9F721E0A0E0B1E001C01D9236
:1000F000A135B207E1F710E0C2E6D0E004C02197D5
:10010000FE010E942007C136D107C9F70E947E0375
:100110000C9441070C940000833081F028F4813066
:1001200099F08230A9F008958730A9F08830C9F09D
:100130008430B1F4809180008F7D03C08091800075
:100140008F7780938000089584B58F7784BD08955C
:1001500084B58F7DFBCF8091B0008F778093B00006
:1001600008958091B0008F7DF9CFCF93DF93EEEAB1
:10017000F0E08491EAE9F0E0D491E6E8F0E0C4919F
:10018000CC23A1F081110E948C00EC2FF0E0EE0F47
:10019000FF1FE458FF4FA591B491EC91ED2381E04E
:1001A00090E009F480E0DF91CF91089580E090E045
:1001B000FACF1F93CF93DF93282F30E0F901E25558
:1001C000FF4F8491F901E656FF4FD491F901EA57A8
:1001D000FF4FC491CC23A9F0162F81110E948C00EF
:1001E000EC2FF0E0EE0FFF1FEE58FF4FA591B491FA
:1001F0008FB7F894EC91111108C0D095DE23DC93F1
:100200008FBFDF91CF911F910895DE2BF8CFCF9351
:10021000DF93EC0180913F0190914001029749F4F6
:10022000C130D10509F43BC06CF560E0209709F4BA
:1002300037C080913F0190914001049749F4C1304B
:10024000D10509F45CC00CF037C0209709F442C016
:1002500080913F0190914001059709F0E5C0CA30B7
:10026000D10508F0E1C0FE01E85CFE4F0C942007C8
:100270009701A301B401CA01E501E701EE01FA010A
:100280000B021202C230D105A9F060E0C330D105E3
:1002900081F6809143010E94D90060E006C061E0D0
:1002A000809143010E94D90061E0809145010E9444
:1002B000D900BFCF61E0EDCFC230D10539F1C330F5
:1002C000D10509F0C5CF61E0809143010E94D900BA
:1002D00060E022C061E0809143010E94D90060E0AB
:1002E000809145010E94D90061E0809147010E9400
:1002F000D90060E0809149010E94D900A9CF60E057
:10030000809143010E94D90061E0EACF60E08091D2
:1003100043010E94D90061E0809145010E94D9000B
:1003200060E0809147010E94D90061E0E3CF60E086
:10033000809143010E94D90061E0809145010E94B3
:10034000D90061E00BC060E0809143010E94D900B8
:1003500061E0809145010E94D90060E080914701F1
:100360000E94D90060E010C060E0809143010E94CB
:10037000D90061E0809145010E94D90060E0809140
:1003800047010E94D90061E0809149010E94D90093
:1003900061E015C060E0809143010E94D90061E0F6
:1003A000809145010E94D90060E0809147010E9440
:1003B000D90061E0809149010E94D90060E08091FC
:1003C0004B01DF91CF910C94D90061E0E4CF61E063
:1003D000809143010E94D90060E0E2CF61E080910A
:1003E00043010E94D90060E0809145010E94D9003C
:1003F00061E0DBCF61E0809143010E94D90060E0C1
:10040000809145010E94D90061E0809147010E94DE
:10041000D90060E0CFCF61E0809143010E94D90014
:1004200060E08BCF60E0F8CFDF91CF910895CF935C
:10043000DF9390E0FC01E656FF4F24918A579F4FCF
:10044000FC0184918823C9F090E0880F991FFC017A
:10045000E859FF4FA591B491FC01EE58FF4FC591AB
:10046000D49161110DC09FB7F8948C91209582238F
:100470008C938881282328839FBFDF91CF91089593
:10048000623051F49FB7F8943C91822F809583237A
:100490008C93E8812E2BEFCF8FB7F894EC912E2B15
:1004A0002C938FBFEACF3FB7F8948091330190919E
:1004B0003401A0913501B091360126B5A89B05C045
:1004C0002F3F19F00196A11DB11D3FBFBA2FA92FD3
:1004D000982F8827BC01CD01620F711D811D911DD0
:1004E00042E0660F771F881F991F4A95D1F708953C
:1004F0001F920F920FB60F9211242F933F938F9359
:100500009F93AF93BF9380912F0190913001A09161
:100510003101B091320130912E0123E0230F2D37AC
:1005200058F50196A11DB11D20932E0180932F0136
:1005300090933001A0933101B09332018091330147
:1005400090913401A0913501B09136010196A11D21
:10055000B11D8093330190933401A0933501B09382
:100560003601BF91AF919F918F913F912F910F9045
:100570000FBE0F901F90189526E8230F0296A11D1D
:10058000B11DD2CF1F920F920FB60F9211242F934D
:100590003F934F935F936F937F938F939F93AF930B
:1005A000BF93CF93DF93EF93FF9380910101C091AD
:1005B0000001D0E087FF24C01092850010928400D3
:1005C000809101018F5F8093010180910101082ECC
:1005D000000C990B8C179D0724F4809101018C303D
:1005E000C4F18091840090918500049680349C49E8
:1005F00008F47AC08091840090918500049676C0BA
:1006000080910101082E000C990B8C179D07C4F6F0
:10061000E09101018E2FEE0F990BFC01EE0FFF1FF1
:10062000E80FF91FED5FFE4F808186FFC9CFE09193
:1006300001018E2FEE0F990BFC01EE0FFF1FE80F4B
:10064000F91FED5FFE4F808160E08F730E94D9003B
:10065000B7CF2091840030918500E09101018E2F69
:10066000EE0F990BFC01EE0FFF1FE80FF91FED5F76
:10067000FE4F81819281820F931F90938900809316
:100680008800E09101018E2FEE0F990BFC01EE0F17
:10069000FF1FE80FF91FED5FFE4F808186FF11C03D
:1006A000E09101018E2FEE0F990BFC01EE0FFF1F61
:1006B000E80FF91FED5FFE4F808161E08F730E94AC
:1006C000D900FF91EF91DF91CF91BF91AF919F91B1
:1006D0008F917F916F915F914F913F912F910F90EB
:1006E0000FBE0F901F90189580E49CE990938900AD
:1006F000809388008FEF80930101E3CF789484B5D5
:10070000826084BD84B5816084BD85B5826085BD0D
:1007100085B5816085BD80916E00816080936E009B
:10072000109281008091810082608093810080918D
:10073000810081608093810080918000816080933E
:1007400080008091B10084608093B1008091B000FE
:1007500081608093B00080917A00846080937A00F9
:1007600080917A00826080937A0080917A00816023
:1007700080937A0080917A00806880937A0010924A
:10078000C10061E084E00E94170261E083E00E9402
:10079000170261E082E00E94170261E081E00E949E
:1007A000170262E080E00E94170261E085E00E948B
:1007B000170261E088E00E94170261E089E00E9470
:1007C000170260E08EE00E94170261E089E00E945B
:1007D000D900809127018C3008F051C061E083E19D
:1007E0000E94170280912701282F30E0F901EE0FB7
:1007F000FF1FE20FF31FED5FFE4F9081907C93612E
:10080000908310922801109229012CE0622F0E94FF
:100810000007829FB001112430E020E0AB01420FBD
:10082000531FFA01EE0FFF1FE40FF51FED5FFE4FA0
:10083000908196FD16C02F5F3F4F2C30310571F728
:1008400081110FC01092800082E08093810010928D
:10085000850010928400B19A80916F00826080932D
:100860006F00E09127018E2F90E0FC01EE0FFF1F3B
:10087000E80FF91FED5FFE4F80818064808384EB79
:10088000882E912CA12CB12C08E8202E312C80E44C
:1008900080937C0080917A00806480937A008091BC
:1008A0007A0086FDFCCFA0917800B091790024EB0E
:1008B00030E00E9426072FEF33E040E050E00E9436
:1008C0009D0630932D0120932C010E9453022B0191
:1008D0003C0112E3C12ED12CE12CF12C0E945302D9
:1008E0006419750986099709683E73408105910569
:1008F000A8F321E0C21AD108E108F10838EE430E4E
:1009000033E0531E611C711CC114D104E104F104D5
:1009100029F70E94B500892B09F0CFC08091020110
:100920008111CBC080912A0190912B0131E030934D
:100930000201019665E070E00E940C0790932B0184
:1009400080932A01C0912A01D0912B01C130D10599
:1009500009F0C1C080912C0190912D018B3591053A
:100960000CF4B3C060E085E00E94D90061E088E04B
:100970000E94D90080912A0190912B01039709F0E0
:100980004BC1A0912C01B0912D0124E630E00E94D2
:100990002607A50194010E949D0669017A0182E360
:1009A000C81AD108E108F108860120913D01309173
:1009B0003E01032E000C440B550B60E077E883E901
:1009C00093E00E949D06CA01B9012AE030E040E0B0
:1009D00050E00E949D062093390130933A014093E4
:1009E0003B0150933C01E601D7FE04C0CC27DD2734
:1009F000CC19DD09101611060CF0F2C081E090E070
:100A00009093380180933701209709F405C10E9423
:100A1000530200914D0110914E0120914F013091F0
:100A200050016B017C01C01AD10AE20AF30A00915D
:100A3000390110913A0120913B0130913C01C016DF
:100A4000D106E206F30600F360934D0170934E0168
:100A500080934F0190935001809141019091420108
:100A600020913701309138012130310509F0C0C0A3
:100A70000196909342018093410120913D01309174
:100A80003E018217930721F4109242011092410116
:100A90002197809141019091420120913F01309135
:100AA00040016AE070E02530310511F064E070E04B
:100AB0000E940C070E940701A7CF0E94B500019772
:100AC00009F040CF109202013DCF61E085E00E9425
:100AD000D90060E04CCF60E085E00E94D90060E082
:100AE00088E00E94D900229709F044CF80912C0120
:100AF00090912D01A4EBB0E0A81BB90BA03282E0CD
:100B0000B807BCF5809128016101C81AD10887FD9A
:100B1000D394CC0CDD1CCC0CDD1C0D2C000CEE0891
:100B2000FF088091290128E532E0281B310987FD63
:100B30003395220F331F220F331F032E000C440B5B
:100B4000550B2C193D094E095F09A53BB10514F061
:100B5000A4EBB0E0B7FF02C0B0E0A0E00E94C7067F
:100B6000A50194010E949D06C20ED31EE41EF51E2F
:100B7000D601409127014C3008F0FCCE809128012D
:100B80009101281B310987FD3395C901880F991FF1
:100B9000880F991FA817B9078CF08091290128E5C3
:100BA00032E0281B310987FD3395C901880F991F51
:100BB000880F991FA817B9070CF4CD010297880F69
:100BC000991F6FB7F89450E09A01220F331F240F3A
:100BD000351FF901ED5FFE4F928381836FBFCACE4F
:100BE000012B09F411CF10923801109237010CCF6C
:100BF000892B41F480913D0190913E0190934201F7
:100C0000809341018091410190914201019790931D
:100C10004201809341013CCFC0912A01D0912B0128
:100C20006C2F617084E00E94D900BE0175956795B4
:100C3000617083E00E94D900BE0175956795759536
:100C40006795617082E00E94D90023E0D595C79531
:100C50002A95E1F76C2F617081E00E94D90080E055
:100C600090E0892B09F413CE0E9400000DCE109263
:100C700042011092410110923801109237011092F6
:100C80004D0110924E0110924F011092500182E3DB
:100C900090E090933E0180933D018DE090E0909331
:100CA0004401809343018CE090E09093460180934F
:100CB00045018BE090E090934801809347018AE0E2
:100CC00090E090934A018093490161E08DE00E9499
:100CD000170261E0809145010E94170261E0809156
:100CE00047010E94170261E0809149010E941702AA
:100CF00010924C0110924B0184E090E090934001DF
:100D000080933F01809100018C3098F491E0980F1E
:100D1000909300018093270190E0FC01EE0FFF1FEC
:100D2000E80FF91FED5FFE4F88EB9BE09283818314
:100D300008958FEF809327010895052E97FB1EF4E9
:100D400000940E94B40657FD07D00E94CF0607FC0E
:100D500003D04EF40C94B4065095409530952195EF
:100D60003F4F4F4F5F4F08959095809570956195D7
:100D70007F4F8F4F9F4F08950E94F106A59F900DC2
:100D8000B49F900DA49F800D911D11240895B7FF6D
:100D90000C94BC060E94BC06821B930B0895A1E232
:100DA0001A2EAA1BBB1BFD010DC0AA1FBB1FEE1FE5
:100DB000FF1FA217B307E407F50720F0A21BB30B30
:100DC000E40BF50B661F771F881F991F1A9469F7AC
:100DD00060957095809590959B01AC01BD01CF0108
:100DE0000895A29FB001B39FC001A39F700D811D04
:100DF0001124911DB29F700D811D1124911D089524
:100E0000991B79E004C0991F961708F0961B881F5C
:100E10007A95C9F78095089597FB072E16F40094EC
:100E200007D077FD09D00E942D0707FC05D03EF4BE
:100E3000909581959F4F0895709561957F4F089586
:100E4000EE0FFF1F0590F491E02D09940E94F1062A
:100E5000B7FF0895821B930B0895AA1BBB1B51E19A
:100E600007C0AA1FBB1FA617B70710F0A61BB70B1A
:100E7000881F991F5A95A9F780959095BC01CD01BF
:060E80000895F894FFCF75
:107E0000112484B714BE81FFF0D085E080938100F7
:107E100082E08093C00088E18093C10086E0809377
:107E2000C20080E18093C4008EE0C9D0259A86E02C
:107E300020E33CEF91E0309385002093840096BBD3
:107E4000B09BFECF1D9AA8958150A9F7CC24DD24C4
:107E500088248394B5E0AB2EA1E19A2EF3E0BF2EE7
:107E6000A2D0813461F49FD0082FAFD0023811F036
:107E7000013811F484E001C083E08DD089C08234E0
:107E800011F484E103C0853419F485E0A6D080C0E4
:107E9000853579F488D0E82EFF2485D0082F10E0AE
:107EA000102F00270E291F29000F111F8ED06801E7
:107EB0006FC0863521F484E090D080E0DECF843638
:107EC00009F040C070D06FD0082F6DD080E0C81688
:107ED00080E7D80618F4F601B7BEE895C0E0D1E017
:107EE00062D089930C17E1F7F0E0CF16F0E7DF06D8
:107EF00018F0F601B7BEE89568D007B600FCFDCFD4
:107F0000A601A0E0B1E02C9130E011968C91119780
:107F100090E0982F8827822B932B1296FA010C0160
:107F200087BEE89511244E5F5F4FF1E0A038BF0790
:107F300051F7F601A7BEE89507B600FCFDCF97BE46
:107F4000E89526C08437B1F42ED02DD0F82E2BD052
:107F50003CD0F601EF2C8F010F5F1F4F84911BD097
:107F6000EA94F801C1F70894C11CD11CFA94CF0C13
:107F7000D11C0EC0853739F428D08EE10CD085E9AC
:107F80000AD08FE07ACF813511F488E018D01DD067
:107F900080E101D065CF982F8091C00085FFFCCF94
:107FA0009093C60008958091C00087FFFCCF809118
:107FB000C00084FD01C0A8958091C6000895E0E648
:107FC000F0E098E1908380830895EDDF803219F02E
:107FD00088E0F5DFFFCF84E1DECF1F93182FE3DFCA
:107FE0001150E9F7F2DF1F91089580E0E8DFEE27F6
:047FF000FF270994CA
:027FFE00040479
:00000001FF
